:020000040800F2
:1000000000500020C5010008C9010008CB0100080C
:10001000E1010008E3010008F90100080000000008
:100020000000000000000000000000000F020008B7
:100030001102000800000000130200081502000869
:1000400029020008290200082902000829020008E4
:1000500029020008290200082902000829020008D4
:1000600029020008290200082902000829020008C4
:1000700029020008290200082902000829020008B4
:1000800029020008290200082902000829020008A4
:100090002902000829020008290200082902000894
:1000A0002902000829020008290200082902000884
:1000B0002902000829020008290200082902000874
:1000C0002902000829020008290200082902000864
:1000D0002902000829020008290200082902000854
:1000E0002902000829020008290200080000000077
:1000F0000000000000000000000000000000000000
:1001000000000000000000005FF808F107B500F0F3
:10011000ADF8214A214B22498B4226D30021214BA5
:10012000214A934226D300F0ADF801A9684600F0B9
:1001300095F800251D4E1E4CA41BA410AC421CDCDF
:1001400000251C4E1C4CA41BA410AC421ADCDDE99B
:10015000000100F0FFFA0646184D194C641BA4106C
:10016000002C14DC304600F075F852F8040F43F808
:10017000040BD1E743F8041BD3E756F82530984722
:100180000135DBE756F8253098470135DDE7013CBE
:1001900055F824309847E3E7AC070008000000203A
:1001A0002C0000202C000020380000205402000801
:1001B00054020008540200085402000854020008C7
:1001C0005402000814480047FEE71EF0040F0CBF5D
:1001D000EFF30880EFF309807146104A1047FEE7FD
:1001E000FEE71EF0040F0CBFEFF30880EFF3098069
:1001F00071460B4A1047FEE71EF0040F0CBFEFF3E9
:100200000880EFF309807146064A1047FEE7FEE7D3
:10021000FEE7FEE7704700000D010008DF0100085F
:0A022000F70100080D020008FEE7D8
:10022C00B0070008000000202C000020B0070008D8
:10023C0000000000000000002C000020380000200E
:08024C000000000000000000AA
:1002540008B500F017F8000001230360014B0B60A0
:10026400704700BF0000002008B500F01DF8024AE6
:10027400024B9A6008BD00BF0000000800ED00E0DA
:1002840000F08AB8BFF34F8F0549064BCA6802F4E1
:10029400E0621343CB60BFF34F8F00BFFDE700BFA5
:1002A40000ED00E00400FA05374B82B01A6842F012
:1002B40001021A605968354A0A405A601A6822F0E5
:1002C400847222F480321A601A6822F480221A603E
:1002D4005A6822F4FE025A604FF41F029A60002208
:1002E400009201921A6842F480321A601A6802F489
:1002F40000320192009A01320092019A1AB9009ACE
:10030400B2F5A06FF2D11A6812F4003218BF0122BC
:100314000192019A012A30D11D4A116841F010015D
:100324001160116821F003011160116841F00201AC
:1003340011605A685A605A685A605A6842F4806276
:100344005A605A6822F47C125A605A6842F4E812DD
:100354005A601A6842F080721A601A689201FCD5D9
:100364005A6822F003025A605A6842F002025A6044
:100374005A6802F00C02082AFAD14FF00062054BC9
:100384009A6002B0704700BF001002400000FFF8FE
:100394000020024000ED00E0104B11495A6802F0C1
:1003A4000C02082A0AD00F4A0A605B680E4AC3F39B
:1003B4000313D25C0B68D3400B6070475A685868CB
:1003C400C2F38342C00302F1020202D4074842434B
:1003D400EAE758688003F9D40248F8E700100240BD
:1003E4001800002000127A000800002000093D00D7
:1003F400012870B525D002D3022842D070BD072948
:100404000DD88E000F212F4CB140236823EA01033D
:100414002360236802FA06F119432160EEE70F29ED
:10042400ECD8A1F108000F21274C800023688140FB
:1004340023EA01032360216802FA00F008432060E4
:10044400DCE707290BD88D000F21204CA940236835
:1004540023EA01032360236802FA05F1DCE70F298C
:10046400CCD8A1F108030F2119489B0004689940D6
:1004740024EA01010160016802FA03F30B430360FB
:10048400BCE707290DD88C000F21124DA1402B6821
:1004940023EA01032B602B6802FA04F10B432B605F
:1004A400ACE70F29AAD80F240B4B08391868890028
:1004B4008C4020EA04001860186802FA01F1014334
:1004C40019609BE70008014004080140000C01404A
:1004D400040C014000100140041001400F2924D8ED
:1004E400B2B901280BD002D302280FD070471348A9
:1004F400012203688A4023EA020202607047104A1C
:100504008840136823EA0000106070470D48EFE745
:10051400012A0AD1012809D002D302280CD070473D
:10052400064B18688A4002431A607047044B88409F
:100534001A68104318607047024BF2E70C08014038
:100544000C0C01400C1001400E4B70B518600E4BA2
:10055400012904460E46196012D1BDE87040417865
:1005640008220078FFF744BF04EB450314F8150094
:1005740008225978FFF73CFF0135B542F4D170BD2C
:100584000025FAE73000002034000020F8B50646C4
:1005940000240B4D0B4F2B68A34200D8F8BD3B68D9
:1005A40003EB4402517826FA04F212F0010213F824
:1005B400140018BF0122FFF791FF0134EBE700BFDD
:1005C40034000020300000201F290ED8012807D055
:1005D40002D302280AD07047054B1A68012001E0B3
:1005E400044B1A688840104318607047024BF4E7C4
:1005F400141002401C10024018100240154B1A68D7
:1006040042F480321A601A6822F480221A601A684E
:1006140042F400221A601A6822F001021A600E4A9B
:10062400116841F480311160116821F400311160C6
:10063400116821F4701141F4E0111160196841F05E
:1006440080711960136823F0030343F001031360FE
:10065400704700BF0010024004100240024A1368B1
:1006640043F001031360704710E000E0002208B576
:10067400074B1A604FF47A7243F8042CFFF7EEFF2D
:10068400044B1A68D203FCD501381A68F9D108BDA5
:1006940018E000E010E000E038B50024012505FA78
:1006A40004F0FFF773FFC820FFF7E0FF0020FFF717
:1006B4006DFF0134C820FFF7D9FF082CEFD10125C5
:1006C40005FA04F0FFF762FFC820FFF7CFFF002010
:1006D400FFF75CFFC820FFF7C9FF14F1FF34EFD226
:1006E40038BD38B5002402256300C4F1030005FABF
:1006F40003F3013BC0B203FA00F0FFF747FF0134F4
:10070400C820FFF7B3FF042CEED10225630005FADD
:1007140003F3013BC4F1040003FA00F0FFF736FFD2
:10072400C820FFF7A3FF013CF0D138BD08B5FF2076
:10073400FFF72CFF4FF4FA70FFF798FF0020FFF744
:1007440025FFBDE808404FF4FA70FFF78FBF0000A3
:1007540008B5FFF753FF02210846FFF735FF0821CC
:100764001148FFF7F1FEFFF797FFFFF795FFFFF73B
:1007740093FFFFF791FFFFF7B4FFFFF7B2FFFFF717
:10078400B0FFFFF7AEFFFFF7D1FFFFF7CFFFFFF793
:10079400CDFFFFF7CBFFFFF7C9FFFFF7C7FFFFF759
:0C07A400C5FFFFF7C3FFDEE71C000020CC
:1007B0002C000020000000000000000000000000ED
:1007C000010203040607080900A24A040000000110
:0C07D00000020003000400050006000702
:040000050800010DE1
:00000001FF
