:020000040800F2
:100000000050002021020008270200082B020008EF
:100010009D020008A1020008E9020008000000009B
:100020000000000000000000000000003103000894
:10003000350300080000000039030008E50C000843
:100040004D0300084D0300084D0300084D03000850
:100050004D0300084D030008E9090008050A0008DF
:10006000210A00083D0A0008590A00084D0300084B
:100070004D0300084D0300084D0300084D03000820
:100080004D0300084D0300084D0300084D03000810
:100090004D0300084D0300084D0300084D03000800
:1000A0004D0300084D0300084D0300084D030008F0
:1000B0004D0300084D0300084D0300084D030008E0
:1000C0004D0300084D0300084D0300084D030008D0
:1000D0004D0300084D0300084D0300084D030008C0
:1000E0004D0300084D0300084D0300080000000008
:1000F0000000000000000000000000000000000000
:1001000000000000000000005FF808F100B583B0B7
:1001100000F0ACF9304B314A1360314A1360314B77
:10012000314A03E052F8041B43F8041B2F498B4269
:10013000F8D32A4B1A682E4B9A4200D0FEE7284B80
:100140001A682C4B9A42F9D1234B2B4A13602B4A45
:1001500013602B4B02E0002243F8042B294A934200
:10016000F9D3254B1B6813B9244B1B6803B1FEE779
:1001700000F088F9694601A800F022F9224C234BCF
:10018000E41AA410002504E0204B53F825309847CA
:100190000135AC42F8DC1E4C1E4BE41AA4100025BD
:1001A00004E01C4B53F8253098470135AC42F8DC8D
:1001B0000099019800F0CCFD0546174C174BE41A46
:1001C000A41004E0013C154B53F824309847002C50
:1001D000F8DC284600F0D0F8BABADECA00000020E9
:1001E00084000020000000202C1800088800002057
:1001F000785634123254769888000020840100200A
:100200008800002088010020780300087803000897
:1002100078030008780300087803000878030008D2
:1002200008B5FFF773FF00BEFEE71EF0040F0CBF1A
:10023000EFF30880EFF309807146414A10472DE93A
:10024000F04182B004468846124B5E6B9F6B9D6AFC
:100250001B6B13F0020F03D00E4BDB6A002B0CDB81
:100260000D4800F0B5F8CDF800803B4632462946EF
:10027000204600F00BF900BEFEE74BF6AB6100F044
:100280007FF90028ECD0034B4FF00042DA6202B055
:10029000BDE8F08100ED00E0CC17000800BEFEE7ED
:1002A0001EF0040F0CBFEFF30880EFF309807146D6
:1002B000244A10472DE9F04182B004468846084B95
:1002C0005E6B9F6B9D6A074800F082F8CDF8008056
:1002D0003B4632462946204600F0D8F800BEFEE7ED
:1002E00000ED00E0DC1700081EF0040F0CBFEFF378
:1002F0000880EFF309807146134A10472DE9F04159
:1003000082B004468846084B5E6B9F6B9D6A074827
:1003100000F05EF8CDF800803B4632462946204684
:1003200000F0B4F800BEFEE700ED00E0E8170008BA
:1003300000BEFEE700BEFEE700BEFEE7704700001D
:100340003F020008B5020008FD02000800BEFEE7FB
:100350002C18000800000020880000202C1800083D
:10036000000000000000000088000020880100203C
:08037000000000000000000085
:10037800FEE7000008B503460C4A12685AB10B4A5A
:100388001068033323F003030344094A934206D851
:10039800064A136008BD054A06491160EFE700F0F8
:1003A8003BFD0C2303604FF0FF30F3E78C00002087
:1003B800004C00208801002001230360014B0B60E2
:1003C800704700BF040000200FB400B583B004AB31
:1003D80053F8042B01938021074800F04FFD0028B3
:1003E80004DC03B05DF804EB04B070470146024832
:1003F80000F034F8F5E700BF940000202DE9F04341
:1004080085B004460F46435633BB0425284621468B
:10041800ABBE0446384605B0BDE8F08304AA1344D1
:10042800002203F8102C4FF00408E94640464946DC
:10043800ABBE8046761B002EECD03546102E28BF6A
:1004480010250023AB42E9D214F9011B04AA1A446F
:1004580002F8101C0133F5E70E46ECE708B5FFF784
:10046800CDFF08BD08B500F0FDF8024A024B9A60BE
:1004780008BD00BF0000000800ED00E008B500F06E
:1004880019F908BDF8B504460D4617461E46274813
:10049800FFF79AFF21682648FFF796FF616825480D
:1004A800FFF792FFA1682448FFF78EFFE168234811
:1004B800FFF78AFF21692248FFF786FF6169214813
:1004C800FFF782FFA1692048FFF77EFFE1691F4817
:1004D800FFF77AFF1E48FFF777FF29461D48FFF709
:1004E80073FF1D4CE16A1D48FFF76EFF216B1C4826
:1004F800FFF76AFFE16B1B48FFF766FF15F0800FF7
:100508000AD115F4004F0CD11748FFF75DFF069983
:100518001648FFF759FFF8BD39461548FFF754FF4D
:10052800EFE731461348FFF74FFFEDE7B016000835
:10053800C0160008D0160008E0160008F0160008DB
:1005480000170008101700082017000830170008C7
:10055800401700084C17000800ED00E05C17000881
:100568006C1700087C170008AC170008B4170008BF
:100578008C1700089C17000883691A888A4201D0E2
:10058800002070470268033A012A01D90020704709
:10059800023383610120704782B0002301930093E6
:1005A8002C4A136843F4803313602A4B1B6803F406
:1005B80000330093019B01330193009B1BB9019BFE
:1005C800B3F5A06FF1D1234B1B6813F4003F06D09D
:1005D80001230093009B012B04D002B07047002335
:1005E8000093F7E71C4B1A6842F010021A601A6869
:1005F80022F003021A601A6842F002021A60A3F598
:1006080080535A685A605A685A605A6842F480623D
:100618005A605A6822F47C125A605A6842F4E81206
:100628005A601A6842F080721A600A4B1B6813F00D
:10063800007FFAD0074B5A6822F003025A605A68C2
:1006480042F002025A60034B5B6803F00C03082B6C
:10065800F9D1C2E7001002400020024008B5FFF7B8
:100668009BFF08BD08B5104B1A6842F001021A60DA
:1006780059680E4A0A405A601A6822F0847222F4B5
:1006880080321A601A6822F480221A605A6822F4AA
:10069800FE025A604FF41F029A60FFF7DFFF044B17
:1006A8004FF000629A6008BD001002400000FFF899
:1006B80000ED00E01F4B5B6803F00C03042B15D022
:1006C800082B17D01BB11C4B1C4A1A6002E01A4BAE
:1006D8001A4A1A60174B5B68C3F30313184AD35CB2
:1006E800DAB215490B68D3400B607047124B134AB6
:1006F8001A60EFE70F4A53685268C3F38343023323
:1007080012F4803F05D10F4A02FB03F30A4A136033
:10071800E0E7084A526812F4003F05D0094A02FB94
:1007280003F3054A1360D5E7044A02FB03F3024AC0
:100738001360CFE7001002401C00002000127A006E
:100748000C00002000093D000F2900F29580DFE829
:1007580001F00810182028313A434C555E6770792B
:10076800828B464A5368890000FA01F10B435360B3
:100778007047424A5368890000FA01F10B435360FD
:1007880070473E4A5368890000FA01F10B435360F1
:1007980070473A4A5368890000FA01F10B435360E5
:1007A8007047364A93680439890000FA01F1194301
:1007B80091607047314A93680439890000FA01F161
:1007C8001943916070472D4A93680439890000FAEB
:1007D80001F1194391607047284A936804398900E8
:1007E80000FA01F1194391607047244AD368083927
:1007F800890000FA01F11943D16070471F4AD36894
:100808000839890000FA01F11943D16070471B4A81
:10081800D3680839890000FA01F11943D16070479B
:10082800164AD3680839890000FA01F11943D160E2
:100838007047124A13690C39890000FA01F119430B
:10084800116170470D4A13690C39890000FA01F1EA
:10085800194311617047094A13690C39890000FA74
:1008680001F1194311617047044A13690C39890071
:1008780000FA01F119431161704700BF00000140FF
:10088800304B1A6842F001021A609A6842F001027D
:100898009A601A6842F002021A609A6842F00202EC
:1008A8009A60DA6842F00202DA601A6842F00402DA
:1008B8001A609A6842F004029A601A6842F00802C4
:1008C8001A609A6842F008029A601A6842F01002A8
:1008D8001A609A6842F010029A601A6842F0200280
:1008E8001A609A6842F020029A601A6842F0400240
:1008F8001A609A6842F040029A601A6842F08002D0
:100908001A609A6842F080029A601A6842F480720B
:100918001A609A6842F480729A601A6842F4007207
:100928001A60DA6842F40072DA601A6842F4806287
:100938001A609A6842F480629A60DA6842F48062C7
:10094800DA60704700040140132946D8DFE801F057
:100958000A0D101316191C1F2225282B2E31343787
:100968003A3D40431D4B186070471C4B5860704718
:100978001A4B98607047194BD8607047174B18612D
:100988007047164B58617047144B98617047134B6A
:10099800D8617047114B18627047104B5862704706
:1009A8000E4B986270470D4BD86270470B4B18631B
:1009B80070470A4B58637047084B98637047074B5A
:1009C800D8637047054B18647047044B58647047E8
:1009D800024B98647047014BD8647047240100208B
:1009E80008B5044B1B689847034A536943F0010351
:1009F800536108BD240100200004014008B5044BE0
:100A08005B689847034A536943F00203536108BD82
:100A1800240100200004014008B5044B9B68984756
:100A2800034A536943F00403536108BD24010020BD
:100A38000004014008B5044BDB689847034A536932
:100A480043F00803536108BD24010020000401405D
:100A580008B5044B1B699847034A536943F01003D0
:100A6800536108BD240100200004014010B401288E
:100A780026D043B21BB1022843D010BC70470729C7
:100A88000CD889000F2303FA01F02E4C236823EABF
:100A9800000302FA01F119432160EEE70F29ECD8AF
:100AA800A1F10800C0B280000F2303FA00F1264C20
:100AB800236823EA010302FA00F018432060DCE708
:100AC80007290CD889000F2303FA01F01F4C23686B
:100AD80023EA000302FA01F119432160CDE70F2947
:100AE800CBD8A1F10800C0B280000F2303FA00F1AF
:100AF800174C236823EA010302FA00F01843206028
:100B0800BBE707290CD889000F2303FA01F0114C21
:100B1800236823EA000302FA01F119432160ACE7D4
:100B28000F29AAD8A1F10803DBB29B000F20984037
:100B3800094C216821EA000002FA03F1014321600F
:100B48009BE700BF0008014004080140000C014079
:100B5800040C01400010014004100140012819D084
:100B680043B213B1022829D07047012A0AD0002ABB
:100B78002FD1012303FA01F11A4A136823EA01036A
:100B880013607047012303FA01F1164A13680B43F7
:100B980013607047012A09D0DAB9012303FA01F179
:100BA800114A136823EA010313607047012303FA0B
:100BB80001F10D4A13680B4313607047012A09D0ED
:100BC8003AB9012303FA01F1084A136823EA010339
:100BD80013607047012303FA01F1044A13680B43B9
:100BE800136070470C0801400C0C01400C100140C8
:100BF80001280CD043B213B1022810D0704701234A
:100C080003FA01F10A4A13684B4013607047012345
:100C180003FA01F1074A13684B4013607047012338
:100C280003FA01F1044A13684B401360704700BF90
:100C38000C0801400C0C01400C1001401F2805D87D
:100C4800012303FA00F0064B186070473B2806D8CA
:100C58002038C0B2012303FA00F0024B1860704735
:100C680000E100E004E100E0034B4FF480321A6039
:100C7800043301221A607047001002401F291DD852
:100C880001280CD043B213B1022810D070470123B9
:100C980003FA01F10A4A13680B43136070470123F2
:100CA80003FA01F1074A13680B43136070470123E5
:100CB80003FA01F1044A13680B431360704700BF3D
:100CC800141002401C10024018100240024B00226F
:100CD8001A601A60704700BF10E000E000B583B0EA
:100CE8000D4B1B785BB90D4B1A6822F002021A6093
:100CF8001A6822F001021A6000225A609A60084BB2
:100D08001B689847054B1B68C3F300438DF80730F1
:100D180003B05DF804FB00BF1401002010E000E000
:100D28007401002008B509210020FFF761FF08BD04
:100D380008B50A210020FFF75BFF08BD08B50B21A5
:100D48000020FFF755FF08BD08B5FFF78DFF02210A
:100D58000846FFF793FF03210220FFF78FFF0421C6
:100D68000220FFF78BFF00210220FFF787FFFFF724
:100D7800ADFF082200210846FFF778FE0122002176
:100D88000846FFF7EBFE012209210020FFF76EFE5F
:100D9800082201210020FFF769FE002201211046E8
:100DA800FFF7DCFE01220A210020FFF75FFE042284
:100DB80002210020FFF75AFE01220B210020FFF735
:100DC80055FE00211148FFF7BFFD01211048FFF72C
:100DD800BBFD02210F48FFF7B7FD00210846FFF7CA
:100DE800B3FC01210020FFF7AFFC02210020FFF730
:100DF800ABFCFFF745FD0620FFF720FF0720FFF7B4
:100E08001DFF0820FFF71AFFFEE700BF2D0D0008A1
:100E1800390D0008450D0008014B1868704700BFE0
:100E28002000002030B5141E05469BB0184605DA90
:100E38008B234FF0FF302B601BB030BD4FF4027393
:100E4800ADF80C300CBF234604F1FF330293059331
:100E58004FF6FF7300910491ADF80E3002461E9BC9
:100E68006946284600F074F8431CBCBF8B232B60EE
:100E7800002CE1D00022009B1A70DDE707B5009333
:100E880013460A46014603480068FFF7CBFF03B044
:100E98005DF804FB200000202DE9F0478E688246AB
:100EA8009E420C469146984638D8B1F80CC01CF4BE
:100EB800906F31D062692568096902EB42026F1AA6
:100EC80002EBD272013355103B449D4238BF1D4698
:100ED8001CF4806F30D0294600F040FB064650B91C
:100EE8000C234FF0FF30CAF80030A38943F04003C9
:100EF800A381BDE8F0873A46216900F0BBFAA389CF
:100F080023F4906343F08003A38126613E44266066
:100F180046466561ED1BA560464500D94646324602
:100F28004946206800F0B4FAA36800209B1BA36020
:100F380023681E442660DCE72A4600F069FB064663
:100F48000028E2D12169504600F0BCFAC8E7000049
:100F58002DE9F04F1E468B899DB01B0607460D46AE
:100F680014460ED50B6963B9402100F0F7FA2860E2
:100F7800286120B90C233B604FF0FF30C9E04023C3
:100F88006B610023099320238DF8293030234FF01B
:100F9800010ADFF898918DF82A30039623461E46F9
:100FA80013F8012B0AB1252AF9D1B6EB040B0BD0A3
:100FB8005B46224629463846FFF76EFF013000F0AF
:100FC800A380099B5B4409933378002B00F09C8035
:100FD80000234FF0FF32CDE9052301360493079330
:100FE8008DF853301A933446052214F8011B4F48E4
:100FF80000F032FA049BC0B9D90644BF20228DF80C
:1010080053201A0744BF2B228DF8532032782A2AFE
:1010180013D0344600200A26079A214611F8013BCE
:10102800303B092B4BD970B914E0A0EB09000AFA40
:1010380000F0184304902646D5E7039A111D12685C
:101048000391002A01DB079204E0524243F00203B5
:101058000792049323782E2B0CD163782A2B33D153
:10106800039B02341A1D1B680392002BB8BF4FF074
:10107800FF3305932E4E03222178304600F0ECF919
:1010880038B14023801B03FA00F0049B013403436A
:10109800049314F8011B062226488DF8281000F046
:1010A800DBF9002838D0244B13BB039B073323F00C
:1010B800070308330393099B434409936EE706FB30
:1010C800023201200C46A8E700230A2619460134FB
:1010D8000593204610F8012B303A092A03D9002B32
:1010E800C8D00591C6E706FB012101230446F0E7B5
:1010F80003AB00932A46114B04A93846AFF300808E
:10110800B0F1FF3F8046D6D1AB895B063FF534AFDF
:1011180009981DB0BDE8F08F03AB00932A46074B32
:1011280004A9384600F082F8EAE700BFF81700087B
:10113800FE1700080218000800000000A10E0008B1
:101148002DE9F04791461F468A680B690646934287
:10115800B8BF1346C9F8003091F843200C46DDF8B3
:10116800208012B10133C9F800302368990642BFC4
:10117800D9F800300233C9F80030256815F00605A3
:1011880007D104F1190AE368D9F800209B1AAB4289
:1011980029DC94F843302268003318BF01239206F3
:1011A8002ED404F1430239463046C047013021D0DD
:1011B8002368E56803F00603042B18BF0025D9F857
:1011C80000204FF0000908BFAD1AA368226908BFC4
:1011D80025EAE5759342C4BF9B1AED181A344D45AC
:1011E8001AD1002008E00123524639463046C0474C
:1011F800013003D14FF0FF30BDE8F0870135C2E779
:101208003020E11881F843005A1C94F84510224414
:10121800023382F84310C4E7012322463946304698
:10122800C0470130E6D009F10109D8E72DE9F043BC
:1012380006460C4601F14300097E85B06E299846A2
:1012480017460C9B00F0BB8024D8632939D00AD8F4
:10125800002900F0C480582900F0928004F142056A
:1012680084F8421035E0642901D06929F6D125684F
:101278001A6815F0800F02F104012CD01268196069
:10128800002A03DA2D23524284F84330DFF8C0C124
:101298000A233FE0732900F0A68008D86F2921D0DF
:1012A8007029DBD1226842F02002226003E0752910
:1012B80018D07829D2D17822DFF898C184F845204F
:1012C80062E01A6804F14205111D1960136884F878
:1012D8004230012394E0126815F0400F196018BFDE
:1012E80012B2CDE7D4F800C01A681CF0800F02F1E2
:1012F80004051D6001D0126803E01CF0400FFAD00D
:1013080012886F290CBF08230A23DFF844C1002183
:1013180084F843106568002DA8BF2168A560A4BFA4
:1013280021F0040121600AB9002D46D00546B2FB20
:10133800F3F103FB112E1CF80EE0934205F801EDC2
:1013480039D9082B0BD12368DA0708D523696268D5
:101358009A42DEBF302305F8013C05F1FF35401BFA
:101368002061CDF800803B4603AA21463046FFF7AE
:10137800E7FE013049D14FF0FF3005B0BDE8F083FA
:10138800DFF8CCC084F845101D68216855F8042B97
:101398001D600D060BD5CD0744BF41F0200121602B
:1013A8001AB9236823F0200323601023AFE74B0604
:1013B80048BF92B2EFE70A46B9E70546C1E71A689F
:1013C800D4F800C0151D61691CF0800F1D601368FA
:1013D80001D0196003E01CF0400FFAD019800023F7
:1013E80005462361BDE71A68111D196015680021BB
:1013F8006268284600F030F808B1401B60606368F6
:101408002361002384F84330ABE723692A46394631
:101418003046C0470130AED023689B0713D4E0683C
:10142800039B9842B8BF1846A7E701234A463946A6
:101438003046C04701309ED00135E368039A9B1AB5
:10144800AB42F2DCEBE7002504F11909F5E700BF30
:10145800091800081A18000810B5C9B202449042C9
:10146800034601D1002303E01C7801308C42F6D1F9
:10147800184610BD0A44914200F1FF3300D170476D
:1014880010B511F8014B914203F8014FF9D110BD85
:10149800884210B501EB020302D983421C4607D8E3
:1014A800421E994208D011F8014B02F8014FF8E7A3
:1014B80083189A1A9A4200D110BD14F8011D03F836
:1014C800011DF7E738B50546002943D051F8043C1B
:1014D8000C1F002BB8BFE41800F0D0F81E4A1368A0
:1014E800104633B9636014602846BDE8384000F000
:1014F800CBB8A3420BD921686218934201BF1A687E
:101508005B685218226063600460EDE713465A680E
:101518000AB1A242FAD919685818A0420BD120681A
:101528000144581882421960DED11068526801449B
:1015380019605A60D8E702D90C232B60D4E72068D9
:1015480021188A4201BF1168526809182160626037
:101558005C60C9E738BD00BF18010020F8B5CD1C94
:1015680025F0030508350C2D38BF0C25002D06463F
:1015780001DBA94203D90C2333600020F8BD00F039
:101588007DF821490A6814469CB9204F3B6823B965
:101598002146304600F062F838602946304600F0AF
:1015A8005DF8431C23D10C233046336000F06CF8FF
:1015B800E3E723685B1B17D40B2B03D923601C4478
:1015C800256004E06368A2420CBF0B60536030469C
:1015D80000F05AF804F10B00231D20F00700C21A8E
:1015E800CCD01B1AA350C9E722466468CCE7C41CB8
:1015F80024F00304A042E3D0211A304600F02EF86C
:101608000130DDD1CFE700BF180100201C01002008
:10161800F8B5074614460E4621B91146BDE8F8400C
:10162800FFF79CBF22B9FFF74DFF25462846F8BDB6
:1016380000F030F8A0420FD221463846FFF78EFF5F
:1016480005460028F2D031462246FFF713FF3146FF
:101658003846FFF737FFE9E73546E7E738B50023AF
:10166800054C054608462360FEF784FE431C02D15C
:10167800236803B12B6038BD20010020014800F029
:1016880011B800BF7C010020014800F00CB800BF71
:101698007C01002051F8043C181F002BBCBF0B58DC
:1016A800C018704770477047537461636B20667247
:1016B800616D653A0A000000205230203D20202547
:1016C8003038580A00000000205231203D202025E3
:1016D8003038580A00000000205232203D202025D2
:1016E8003038580A00000000205233203D202025C1
:1016F8003038580A0000000020523132203D2025A1
:101708003038580A00000000204C52203D20202587
:101718003038580A00000000205043203D20202582
:101728003038580A0000000020505352203D202530
:101738003038580A000000004653522F4641523AAA
:101748000A0000002043465352203D20202530380F
:10175800580A00002048465352203D2020253038A2
:10176800580A00002044465352203D202025303896
:10177800580A00002041465352203D202025303889
:10178800580A0000204D4D464152203D2025303852
:10179800580A00002042464152203D20202530387A
:1017A800580A00004D6973630A000000204C522F4C
:1017B8004558435F52455455524E3D2025303858C0
:1017C8000A0000005B486172644661756C745D0ACA
:1017D800000000005B4275734661756C745D0A0019
:1017E8005B55736167654661756C745D0A0000003E
:1017F800232D302B2000686C4C00656667454647F2
:101808000030313233343536373839414243444574
:1018180046003031323334353637383961626364E3
:03182800656600F2
:10182C0078563412900000200000000000000000E8
:10183C0000000000010203040607080900A24A0484
:10184C002400002000000000000000000000000048
:10185C00000000000000000000000000000000007C
:10186C00000000000000000000000000000000006C
:10187C00000000000000000000000000000000005C
:10188C00000000000000000000000000000000004C
:10189C00000000000000000000000000000000003C
:0818AC000000000032547698A0
:040000050800010DE1
:00000001FF
