:020000040000FA
:10000000700200200D03000015030000170300001C
:10001000190300001B0300001D0300000000000086
:100020000000000000000000000000001F030000AE
:10003000210300000000000023030000250300004E
:1000400027030000290300002B0300002D030000FC
:100050002F030000310300003303000035030000CC
:1000600037030000390300003B0300003D0300009C
:100070003F0300004103000043030000450300006C
:1000800047030000490300004B0300004D0300003C
:100090004F0300005103000053030000550300000C
:1000A00057030000590300005B0300005D030000DC
:1000B0005F030000610300006303000065030000AC
:1000C00067030000690300006B0300006D0300007C
:1000D0006F0300007103000073030000750300004C
:1000E0007703000079030000000000007B0300009C
:1000F0007D0300007F0300008103000083030000F4
:100100008503000087030000890300008B030000C3
:1001100000000000000000008D0300008F030000BD
:100120009103000093030000950300009703000073
:10013000990300009B0300009D0300009F03000043
:1001400000000000000000000000000000000000AF
:10015000A1030000A3030000A5030000A703000003
:10016000000000000000000000000000000000008F
:10017000000000000000000000000000000000007F
:10018000000000000000000000000000000000006F
:10019000000000000000000000000000000000005F
:1001A000000000000000000000000000000000004F
:1001B000A9030000AB030000AD030000AF03000083
:1001C000B1030000B3030000B5030000B703000053
:1001D000B9030000BB030000BD030000BF03000023
:1001E000C1030000C3030000C503000000000000BD
:1001F00000000000C7030000C9030000CB0300009B
:10020000CD030000CF03000000000000000000004C
:10021000D1030000D3030000D5030000D703000082
:10022000D9030000DB030000DD030000DF03000052
:10023000E1030000E3030000E5030000E703000022
:10024000E9030000EB030000ED030000EF030000F2
:10025000F1030000F3030000F5030000F7030000C2
:10026000F9030000FB030000FD03000000F002F8AA
:1002700000F03CF80AA090E8000C82448344AAF104
:100280000107DA4501D100F031F8AFF2090EBAE802
:100290000F0013F0010F18BFFB1A43F001031847BA
:1002A0007407000094070000103A24BF78C878C192
:1002B000FAD8520724BF30C830C144BF04680C606C
:1002C000704700000023002400250026103A28BFB4
:1002D00078C1FBD8520728BF30C148BF0B607047B8
:1002E0001FB500F091FB1FBD10B510BD00F09BF8CD
:1002F0001146FFF7F5FF00F029FA00F0B9F803B452
:10030000FFF7F2FF03BC00F0C1F800003F48804750
:100310003F480047FEE7FEE7FEE7FEE7FEE7FEE7B1
:10032000FEE7FEE7FEE7FEE7FEE7FEE7FEE7FEE7A5
:10033000FEE7FEE7FEE7FEE7FEE7FEE7FEE7FEE795
:10034000FEE7FEE7FEE7FEE7FEE7FEE7FEE7FEE785
:10035000FEE7FEE7FEE7FEE7FEE7FEE7FEE7FEE775
:10036000FEE7FEE7FEE7FEE7FEE7FEE7FEE7FEE765
:10037000FEE7FEE7FEE7FEE7FEE7FEE7FEE7FEE755
:10038000FEE7FEE7FEE7FEE7FEE7FEE7FEE7FEE745
:10039000FEE7FEE7FEE7FEE7FEE7FEE7FEE7FEE735
:1003A000FEE7FEE7FEE7FEE7FEE7FEE7FEE7FEE725
:1003B000FEE7FEE7FEE7FEE7FEE7FEE7FEE7FEE715
:1003C000FEE7FEE7FEE7FEE7FEE7FEE7FEE7FEE705
:1003D000FEE7FEE7FEE7FEE7FEE7FEE7FEE7FEE7F5
:1003E000FEE7FEE7FEE7FEE7FEE7FEE7FEE7FEE7E5
:1003F000FEE7FEE7FEE7FEE7FEE7FEE7FEE70000BA
:1004000004480549034A054B704700002D060000CB
:100410006D020000700000207002002070000020BB
:10042000704770477047754600F02CF8AE460500DF
:100430006946534620F00700854618B020B5FFF7FF
:10044000DFFFBDE820404FF000064FF000074FF0FF
:1004500000084FF0000B21F00701AC46ACE8C009E2
:10046000ACE8C009ACE8C009ACE8C0098D467047EB
:1004700010B50446AFF300802046BDE81040FFF7FA
:100480003EBF0000004870470C00002001491820C2
:10049000ABBEFEE72600020070470000144A126857
:1004A00042F00202124B1A60124AD26822F0010294
:1004B000104BDA6004221A6002225A600F229A62FC
:1004C00001225A621A46D26842F00102DA60002123
:1004D0000AE000BF074AD26902F00102002AF9D0FF
:1004E0000122044B5A62491C8142F2D3704700003A
:1004F00004E60F400010034010B52DED048B2D488D
:10050000006820F010004FF04021C1F8FC030C20DF
:10051000FFF7C4FF4FF04020D0F8FC0340F010007C
:100520004FF04021C1F8FC030C20FFF7B7FF4FF05C
:100530004020D0F8FC0320F010001E490860042081
:100540001D49486200BF1C48C06900F00400002833
:10055000F9D01948806C194908600420164948628E
:1005600000BF1548C06900F004000028F9D0124807
:10057000806C134908600846006810490968401AF1
:10058000104908600846006800F02DF941EC190B8D
:100590009FED0D0B53EC102B00F038F941EC180BCC
:1005A00000F0F4F80749086008460068BDEC048BC9
:1005B00010BD0000FC43004000000340000000208C
:1005C00004000020080000204241295AB917383F92
:1005D0001148006840F001000F49086008460068B3
:1005E00040F0200008600D48006840F010000B4902
:1005F00008600B48006840F0040009490860094899
:10060000006840F01000074908600748006840F0A3
:10061000040005490860704708E60F4000440040A8
:10062000005402401C4500401C550240174909680F
:1006300041F47001154A11601549164A11671649AF
:1006400011661649116616491167002000E0401C2A
:10065000B0F57A7FFBD313490E4A11661249116730
:10066000002000E0401CB0F57A7FFBD30F49094A17
:1006700011660F4911660F491167002000E0401C08
:1006800042F210718842FAD37047000088ED00E012
:100690001028800700E00F40D13A8E07522D9E01AE
:1006A00010288001520D9E0110088001520DDE01BC
:1006B0005205DE01100080012048006840F0010072
:1006C0001E490860081D006840F00200091D08600E
:1006D0001B48006820F0400019490860194800686C
:1006E00040F040001749086015482030006840F08D
:1006F000400013492031086012481030006820F093
:1007000070601049103108600846006840F0E060F1
:1007100008600D48C06820F001000B49C860012046
:100720000860172048600846C06840F00C00C860A8
:100730000846C06840F00100C860704704E60F40FA
:10074000005400401C55004000000340FFF740FFEC
:10075000FFF7B2FF14E0FFF7CFFEFFF7CDFE0F2843
:1007600007D20848006840F004000749C1F8FC03BC
:1007700006E00448006820F004000349C1F8FC03C7
:10078000E9E70000FC530240005002404FEA1153D9
:10079000A3F58063D3F11E03A8BFD3F1200C08DBBF
:1007A0004FF0004242EAC12252EA505232FA03F0BC
:1007B000704709420BD4102BC4BF0020704703F5CB
:1007C000787CBCF1FF3F05D04FF0FF3070474FF011
:1007D0000000704770B500F0C3F800BF4992248054
:1007E00000207047F0E7B0FA80F310FA03F10AD066
:1007F000C3F11D0303F580634FEA41504FEA0352F2
:1008000002EBD12170474FF000007047DFF848C17C
:1008100070B51CEA111E1EBF1CEA13159EEA0C0FD0
:1008200095EA0C0F00F06F8081EA030423EA4C1371
:100830004EEAD47E21EA4C1141F4801143F4801336
:10084000AE44A1FB024CA0FB0365AEF17F7E3619DE
:1008500055EB0C05A1FB034C4CF10003A0FB021C63
:1008600016EB0C06654153F10003094218BF46F030
:10087000010613F4007F0BD14FEA03314FEA053034
:10088000340341EA155140EA16506FF003020AE0C2
:100890004FEAC3214FEAC520F40241EA555140EA2C
:1008A00056506FF0020202EB2E4201EB025585EA30
:1008B000CE710AD05FEA440C18BF24F0004450F116
:1008C000000041F1000120EAD47040F2FE7C624554
:1008D00000D270BDA84214BF4FF080444FF0404496
:1008E000002E08BF0024BEF1806FA8BFA1F1C04157
:1008F000BDE8704080F282804FF0000001F1C041FD
:1009000001F0004170479EEA0C0F0CEA131518BF66
:1009100095EA0C0F06D04FF0000081EA030E0EF0AE
:10092000004170BD00F01CF88900013E00F007B8DE
:1009300000F009B84FEA430C5FEA5C5C08D081EA3A
:10094000030100F05BB84FEA410C5FEA5C5CF6D152
:100950004FF00000014970470000FF070000F87FDA
:100960000EF1020E2EF0030E5EF8046B364205D433
:10097000012A43EB030515F5001F12D8012841EBAE
:10098000010C1CF5001F0CD80ED14FEAD17C15F5D7
:10099000001F0CEB4C0C0CF1020C08BF4CEBD37C91
:1009A00004E04FF0080C01E04FEAD37C0CEB4C055F
:1009B00026FA05F606F00706B6F1040C06D20EEB91
:1009C000860CBDE870404CF0010C6047DFE80CF08D
:1009D000090B02024FF000414FF00000A1F5002189
:1009E00070BD19461046012851EB010418BFD4F51B
:1009F000001484BF002001F0004170BD0808A0F57C
:100A000000114FEA310170474FF04070E1EE100ADB
:100A100070470000340A0000000000200C000000B5
:100A2000A8020000400A00000C0000206402000040
:100A3000C4020000000000000000000000000000F0
:040000050000026D88
:00000001FF
