:020000040800F2
:1000000000500020C5010008C9010008CB0100080C
:10001000E1010008E3010008F90100080000000008
:100020000000000000000000000000000F020008B7
:100030001102000800000000130200087508000803
:1000400029020008290200082902000829020008E4
:100050002902000829020008F90500081506000811
:10006000310600084D06000869060008290200084C
:1000700029020008290200082902000829020008B4
:1000800029020008290200082902000829020008A4
:100090002902000829020008290200082902000894
:1000A0002902000829020008290200082902000884
:1000B0002902000829020008290200082902000874
:1000C0002902000829020008290200082902000864
:1000D0002902000829020008290200082902000854
:1000E0002902000829020008290200080000000077
:1000F0000000000000000000000000000000000000
:1001000000000000000000005FF808F107B500F0F3
:10011000ADF8214B214A22498B4226D30021214BA5
:10012000214A934226D300F0ADF801A9684600F0B9
:1001300095F800261D4D1E4C641BA410B4421CDC17
:1001400000261C4D1C4C641BA410B4421ADCDDE9D3
:10015000000100F0BDFB0646184D194C641BA410AD
:10016000002C14DC304600F075F852F8040B43F80C
:10017000040BD1E743F8041BD3E755F8043B984739
:100180000136DBE755F8043B98470136DDE7013CD3
:1001900055F824309847E3E7000000209009000854
:1001A0001C0000201C0000207400002054020008E5
:1001B00054020008540200085402000854020008C7
:1001C0005402000814480047FEE71EF0040F0CBF5D
:1001D000EFF30880EFF309807146104A1047FEE7FD
:1001E000FEE71EF0040F0CBFEFF30880EFF3098069
:1001F00071460B4A1047FEE71EF0040F0CBFEFF3E9
:100200000880EFF309807146064A1047FEE7FEE7D3
:10021000FEE7FEE7704700000D010008DF0100085F
:0A022000F70100080D020008FEE7D8
:10022C0090090008000000201C0000209009000824
:10023C0000000000000000001C00002074000020E2
:08024C000000000000000000AA
:1002540008B500F017F8000001230360014B0B60A0
:10026400704700BF0000002008B500F01DF8024AE6
:10027400024B9A6008BD00BF0000000800ED00E0DA
:1002840000F08AB8BFF34F8F0549064BCA6802F4E1
:10029400E0621343CB60BFF34F8F00BFFDE700BFA5
:1002A40000ED00E00400FA05374B82B01A6842F012
:1002B40001021A605968354A0A405A601A6822F0E5
:1002C400847222F480321A601A6822F480221A603E
:1002D4005A6822F4FE025A604FF41F029A60002208
:1002E400009201921A6842F480321A601A6802F489
:1002F40000320192009A01320092019A1AB9009ACE
:10030400B2F5A06FF2D11A6812F4003218BF0122BC
:100314000192019A012A30D11D4A116841F010015D
:100324001160116821F003011160116841F00201AC
:1003340011605A685A605A685A605A6842F4806276
:100344005A605A6822F47C125A605A6842F4E812DD
:100354005A601A6842F080721A601A689201FCD5D9
:100364005A6822F003025A605A6842F002025A6044
:100374005A6802F00C02082AFAD14FF00062054BC9
:100384009A6002B0704700BF001002400000FFF8FE
:100394000020024000ED00E0114B12495A6802F0BF
:1003A4000C02042A01D0082A0AD00F4A0A605B68AA
:1003B4000E4AC3F30313D25C0B68D3400B6070473F
:1003C4005A685868C2F38342C00302F1020202D49D
:1003D40007484243EAE758688003F9D40248F8E73B
:1003E400001002401800002000127A0008000020CB
:1003F40000093D000F2949D8DFE801F0080D121764
:100404001C22272C31363B4045454545204A53683C
:100414001843506070471E4A536843EA0010F8E7D7
:100424001B4A536843EA0020F3E7194A536843EA36
:100434000030EEE7164A936843EA00409060704744
:10044400134A936843EA0050F8E7114A936843EA71
:100454000060F3E70E4A936843EA0070EEE70C4A43
:10046400D3681843D0607047094AD36843EA001040
:10047400F8E7074AD36843EA0020F3E7044AD3685D
:1004840043EA0030EEE7024B1A691A61704700BF75
:1004940000000140304B1A6842F001021A609A6869
:1004A40042F001029A601A6842F002021A609A68E5
:1004B40042F002029A60DA6842F00202DA601A68D4
:1004C40042F004021A609A6842F004029A601A68C0
:1004D40042F008021A609A6842F008029A601A68A8
:1004E40042F010021A609A6842F010029A601A6888
:1004F40042F020021A609A6842F020029A601A6858
:1005040042F040021A609A6842F040029A601A6807
:1005140042F080021A609A6842F080029A601A6877
:1005240042F480721A609A6842F480729A601A687F
:1005340042F400721A60DA6842F40072DA601A68EF
:1005440042F480621A609A6842F480629A60DA68BF
:1005540042F48062DA60704700040140132946D8EF
:10056400DFE801F00A0D101316191C1F2225282B91
:100574002E3134373A3D40431D4B186070471C4BB5
:10058400586070471A4B98607047194BD860704791
:10059400174B18617047164B58617047144B98619C
:1005A4007047134BD8617047114B18627047104B5A
:1005B400586270470E4B986270470D4BD862704773
:1005C4000B4B186370470A4B58637047084B98638A
:1005D4007047074BD8637047054B18647047044B4A
:1005E40058647047024B98647047014BD864704755
:1005F4002000002008B5044B1B689847034A536940
:1006040043F00103536108BD2000002000040140B1
:1006140008B5044B5B689847034A536943F00203E7
:10062400536108BD200000200004014008B5044BBC
:100634009B689847034A536943F00403536108BD18
:10064400200000200004014008B5044BDB689847F3
:10065400034A536943F00803536108BD2000002096
:100664000004014008B5044B1B699847034A5369C9
:1006740043F01003536108BD200000200004014032
:10068400012810B522D010B102283DD010BD072991
:100694000CD80F20224C890000FA01F3206802FADA
:1006A40001F120EA030001432160EFE70F29EDD8AF
:1006B400A1F108000F21C0B21A4C800001FA00F326
:1006C400216802FA00F021EA0301ECE707290AD8BD
:1006D400154C89000F2303FA01F0236802FA01F193
:1006E40023EA00030EE00F29D0D8A1F108030F215B
:1006F400DBB20E4C9B0001FA03F0216802FA03F30B
:1007040021EA00011943CFE7072902D88900084CE0
:10071400E0E70F29BAD80839C9B28900054CD9E7EE
:100724000008014004080140000C0140040C014091
:100734000010014004100140012815D010B1022816
:1007440020D07047012A05D1124B8A4019680A4308
:100754001A6070473AB90F48012303FA01F203689B
:1007640023EA020303607047012A01D10A4BECE734
:10077400002AF8D1084B00FA01F2186820EA0200B6
:1007840018607047012A01D1044BDEE7002AEAD140
:100794000248E1E70C0801400C0C01400C10014038
:1007A40001280BD010B102280ED0704701220A4B49
:1007B40002FA01F01A6842401A607047074B8840F9
:1007C40019684840186070470123054A03FA01F08C
:1007D40013684340136070470C0801400C0C01403F
:1007E4000C1001401F2805D8012303FA00F0064B22
:1007F400186070473B28FCD801232038C0B203FAA4
:1008040000F0024BF4E700BF00E100E004E100E087
:100814004FF480310122024BC3E90012704700BF3C
:10082400001002401F290CD801280BD010B1022857
:100834000ED07047074A012303FA01F013680343FB
:1008440013607047044B8840196808431860704768
:10085400024AF0E7141002401C1002401810024033
:100864000022024B1A601A60704700BF10E000E0DB
:1008740007B50D4B1A7852B90C4B196821F00201D7
:100884001960196821F0010119605A609A60084BD7
:100894001B689847054B1B68C3F300438DF807306A
:1008A40003B05DF804FB00BF1D00002010E000E071
:1008B4007000002009210020FFF772BF0A210020E8
:1008C400FFF76EBF0B210020FFF76ABF08B5FFF7E3
:1008D4009FFF02210846FFF7A5FF00210220FFF732
:1008E400A1FFFFF7BDFF082201201146FFF7C8FE54
:1008F400012208211046FFF71FFF012209210020D1
:10090400FFF7BEFE082209210120FFF7B9FE0022ED
:1009140009210120FFF710FF01220A210020FFF71F
:10092400AFFE04220A210120FFF7AAFE01220B21B7
:100934000020FFF7A5FE08211148FFF70FFE09214B
:100944001048FFF70BFE0A210F48FFF707FE0821A6
:100954000120FFF74FFD09210120FFF74BFD0A217C
:100964000120FFF747FDFFF795FD0620FFF73AFF4B
:100974000720FFF737FF0820FFF734FFFEE700BF2B
:0C098400B9080008C1080008C9080008F4
:100990001C0000200000000000000000000000001B
:0C09A000010203040607080900A24A0433
:040000050800010DE1
:00000001FF
