:020000040800F2
:100000000050002021020008270200082B020008EF
:100010009D020008A1020008E9020008000000009B
:100020000000000000000000000000003103000894
:10003000350300080000000039030008C10B000868
:100040004D0300084D0300084D0300084D03000850
:100050004D0300084D0300084D0300084D03000840
:100060004D0300084D0300084D0300084D03000830
:100070004D0300084D0300084D0300084D03000820
:100080004D0300084D0300084D0300084D03000810
:100090004D0300084D0300084D0300084D03000800
:1000A0004D0300084D0300084D0300084D030008F0
:1000B0004D0300084D0300084D0300084D030008E0
:1000C0004D0300084D0300084D0300084D030008D0
:1000D0004D0300084D0300084D0300084D030008C0
:1000E0004D0300084D0300084D0300080000000008
:1000F0000000000000000000000000000000000000
:1001000000000000000000005FF808F100B583B0B7
:1001100000F0ACF9304B314A1360314A1360314B77
:10012000314A03E052F8041B43F8041B2F498B4269
:10013000F8D32A4B1A682E4B9A4200D0FEE7284B80
:100140001A682C4B9A42F9D1234B2B4A13602B4A45
:1001500013602B4B02E0002243F8042B294A934200
:10016000F9D3254B1B6813B9244B1B6803B1FEE779
:1001700000F088F9694601A800F022F9224C234BCF
:10018000E41AA410002504E0204B53F825309847CA
:100190000135AC42F8DC1E4C1E4BE41AA4100025BD
:1001A00004E01C4B53F8253098470135AC42F8DC8D
:1001B0000099019800F020FD0546174C174BE41AF2
:1001C000A41004E0013C154B53F824309847002C50
:1001D000F8DC284600F0D0F8BABADECA00000020E9
:1001E0000801002000000020741600080C01002007
:1001F00078563412325476980C010020B801002051
:100200000C010020BC0100207803000878030008DE
:1002100078030008780300087803000878030008D2
:1002200008B5FFF773FF00BEFEE71EF0040F0CBF1A
:10023000EFF30880EFF309807146414A10472DE93A
:10024000F04182B004468846124B5E6B9F6B9D6AFC
:100250001B6B13F0020F03D00E4BDB6A002B0CDB81
:100260000D4800F0B5F8CDF800803B4632462946EF
:10027000204600F00BF900BEFEE74BF6AB6100F044
:100280007FF90028ECD0034B4FF00042DA6202B055
:10029000BDE8F08100ED00E01416000800BEFEE7A6
:1002A0001EF0040F0CBFEFF30880EFF309807146D6
:1002B000244A10472DE9F04182B004468846084B95
:1002C0005E6B9F6B9D6A074800F082F8CDF8008056
:1002D0003B4632462946204600F0D8F800BEFEE7ED
:1002E00000ED00E0241600081EF0040F0CBFEFF331
:1002F0000880EFF309807146134A10472DE9F04159
:1003000082B004468846084B5E6B9F6B9D6A074827
:1003100000F05EF8CDF800803B4632462946204684
:1003200000F0B4F800BEFEE700ED00E03016000873
:1003300000BEFEE700BEFEE700BEFEE7704700001D
:100340003F020008B5020008FD02000800BEFEE7FB
:1003500074160008000000200C010020741600082C
:1003600000000000000000000C010020BC01002083
:08037000000000000000000085
:10037800FEE7000008B503460C4A12685AB10B4A5A
:100388001068033323F003030344094A934206D851
:10039800064A136008BD054A06491160EFE700F0F8
:1003A8005FFC0C2303604FF0FF30F3E710010020DF
:1003B800004C0020BC01002001230360014B0B60AE
:1003C800704700BF040000200FB400B583B004AB31
:1003D80053F8042B01938021074800F073FC002890
:1003E80004DC03B05DF804EB04B070470146024832
:1003F80000F034F8F5E700BF180100202DE9F043BC
:1004080085B004460F46435633BB0425284621468B
:10041800ABBE0446384605B0BDE8F08304AA1344D1
:10042800002203F8102C4FF00408E94640464946DC
:10043800ABBE8046761B002EECD03546102E28BF6A
:1004480010250023AB42E9D214F9011B04AA1A446F
:1004580002F8101C0133F5E70E46ECE708B5FFF784
:10046800CDFF08BD08B500F0FDF8024A024B9A60BE
:1004780008BD00BF0000000800ED00E008B500F06E
:1004880019F908BDF8B504460D4617461E46274813
:10049800FFF79AFF21682648FFF796FF616825480D
:1004A800FFF792FFA1682448FFF78EFFE168234811
:1004B800FFF78AFF21692248FFF786FF6169214813
:1004C800FFF782FFA1692048FFF77EFFE1691F4817
:1004D800FFF77AFF1E48FFF777FF29461D48FFF709
:1004E80073FF1D4CE16A1D48FFF76EFF216B1C4826
:1004F800FFF76AFFE16B1B48FFF766FF15F0800FF7
:100508000AD115F4004F0CD11748FFF75DFF069983
:100518001648FFF759FFF8BD39461548FFF754FF4D
:10052800EFE731461348FFF74FFFEDE7F8140008EF
:1005380008150008181500082815000838150008BF
:1005480048150008581500086815000878150008AF
:10055800881500089415000800ED00E0A4150008AF
:10056800B4150008C4150008F4150008FC150008A7
:10057800D4150008E415000883691A888A4201D056
:10058800002070470268033A012A01D90020704709
:10059800023383610120704782B0002301930093E6
:1005A8002C4A136843F4803313602A4B1B6803F406
:1005B80000330093019B01330193009B1BB9019BFE
:1005C800B3F5A06FF1D1234B1B6813F4003F06D09D
:1005D80001230093009B012B04D002B07047002335
:1005E8000093F7E71C4B1A6842F010021A601A6869
:1005F80022F003021A601A6842F002021A60A3F598
:1006080080535A685A605A685A605A6842F480623D
:100618005A605A6822F47C125A605A6842F4E81206
:100628005A601A6842F080721A600A4B1B6813F00D
:10063800007FFAD0074B5A6822F003025A605A68C2
:1006480042F002025A60034B5B6803F00C03082B6C
:10065800F9D1C2E7001002400020024008B5FFF7B8
:100668009BFF08BD08B5104B1A6842F001021A60DA
:1006780059680E4A0A405A601A6822F0847222F4B5
:1006880080321A601A6822F480221A605A6822F4AA
:10069800FE025A604FF41F029A60FFF7DFFF044B17
:1006A8004FF000629A6008BD001002400000FFF899
:1006B80000ED00E01F4B5B6803F00C03042B15D022
:1006C800082B17D01BB11C4B1C4A1A6002E01A4BAE
:1006D8001A4A1A60174B5B68C3F30313184AD35CB2
:1006E800DAB215490B68D3400B607047124B134AB6
:1006F8001A60EFE70F4A53685268C3F38343023323
:1007080012F4803F05D10F4A02FB03F30A4A136033
:10071800E0E7084A526812F4003F05D0094A02FB94
:1007280003F3054A1360D5E7044A02FB03F3024AC0
:100738001360CFE7001002401C00002000127A006E
:100748000C00002000093D0010B4012826D043B257
:100758001BB1022843D010BC704707290CD8890068
:100768000F2303FA01F02E4C236823EA000302FA50
:1007780001F119432160EEE70F29ECD8A1F1080037
:10078800C0B280000F2303FA00F1264C236823EA45
:10079800010302FA00F018432060DCE707290CD8AF
:1007A80089000F2303FA01F01F4C236823EA000392
:1007B80002FA01F119432160CDE70F29CBD8A1F145
:1007C8000800C0B280000F2303FA00F1174C236819
:1007D80023EA010302FA00F018432060BBE7072967
:1007E8000CD889000F2303FA01F0114C236823EA7F
:1007F800000302FA01F119432160ACE70F29AAD8D6
:10080800A1F10803DBB29B000F209840094C216836
:1008180021EA000002FA03F1014321609BE700BFCF
:100828000008014004080140000C0140040C01408C
:100838000010014004100140012819D043B213B13F
:10084800022829D07047012A0AD0002A2FD1012373
:1008580003FA01F11A4A136823EA01031360704787
:10086800012303FA01F1164A13680B43136070471A
:10087800012A09D0DAB9012303FA01F1114A1368F0
:1008880023EA010313607047012303FA01F10D4ABB
:1008980013680B4313607047012A09D03AB9012342
:1008A80003FA01F1084A136823EA01031360704749
:1008B800012303FA01F1044A13680B4313607047DC
:1008C8000C0801400C0C01400C10014008B5012235
:1008D80000211046FFF7B0FF012211461046FFF72E
:1008E800ABFF012205211046FFF7A6FF01220621D2
:1008F8001046FFF7A1FF012207211046FFF79CFFD2
:10090800012208211046FFF797FF0122092110460E
:10091800FFF792FF01220A211046FFF78DFF08BD5D
:1009280010B5044600F0010200210846FFF784FFD5
:10093800C4F3400201210020FFF77EFFC4F38002C8
:1009480002210020FFF778FFC4F3C0020321002032
:10095800FFF772FFC4F3001204210020FFF76CFFB9
:10096800C4F3401205210020FFF766FFC4F380128C
:1009780006210020FFF760FFE20907210020FFF7AA
:100988005BFF10BD08B5022200210846FFF7DCFE18
:10099800022201210020FFF7D7FE02221146002083
:1009A800FFF7D2FE022203210020FFF7CDFE02222C
:1009B80004210020FFF7C8FE022205210020FFF7CE
:1009C800C3FE022206210020FFF7BEFE02220721F5
:1009D8000020FFF7B9FE022200210120FFF7B4FE34
:1009E800022201210846FFF7AFFE0222052101205D
:1009F800FFF7AAFE022206210120FFF7A5FE022228
:100A080007210120FFF7A0FE022208210120FFF79D
:100A18009BFE022209210120FFF796FE02220A21ED
:100A28000120FFF791FE08BD38B504463C2270E06E
:100A3800FFF74CFF2078FFF773FF002211460120D3
:100A4800FFF7FAFE40F6C41000F0A0F8FFF73EFFEB
:100A58006078FFF765FF002201210846FFF7ECFEEA
:100A680040F6C41000F092F8FFF730FFA078FFF7C7
:100A780057FF002205210120FFF7DEFE40F6C410D3
:100A880000F084F8FFF722FFE078FFF749FF002223
:100A980006210120FFF7D0FE40F6C41000F076F8DA
:100AA800FFF714FF2079FFF73BFF00220721012001
:100AB800FFF7C2FE40F6C41000F068F8FFF706FF23
:100AC8006079FFF72DFF002208210120FFF7B4FE0F
:100AD80040F6C41000F05AF8FFF7F8FEA079FFF7C7
:100AE8001FFF002209210120FFF7A6FE40F6C410CF
:100AF80000F04CF8FFF7EAFEE079FFF711FF00225B
:100B08000A210120FFF798FE40F6C41000F03EF8D5
:100B18002A46531EDDB2002A8AD138BD034B4FF452
:100B280080321A60043301221A60704700100240B4
:100B38001F291DD801280CD043B213B1022810D0A8
:100B48007047012303FA01F10A4A13680B43136043
:100B58007047012303FA01F1074A13680B43136036
:100B68007047012303FA01F1044A13680B43136029
:100B7800704700BF141002401C10024018100240B9
:100B8800014B04221A60704710E000E0094B5860DE
:100B98001A6842F001021A60064B1B6813F4803F82
:100BA800FAD0044B1A6822F001021A6000225A6037
:100BB8009A60704710E000E008B50A4B1B785BB9F3
:100BC800094B1A6822F002021A601A6842F0010200
:100BD8001A6000225A609A60044B1B689847024BBF
:100BE8001B6808BD9801002010E000E0A801002063
:100BF80008B5FFF793FF02210846FFF799FF032185
:100C08000220FFF795FF04210220FFF791FFFFF76D
:100C1800B7FFFFF7B7FE114C2068FFF705FF6068C4
:100C2800FFF702FFA068FFF7FFFEE068FFF7FCFE92
:100C38002069FFF7F9FE6069FFF7F6FEA069FFF784
:100C4800F3FEE069FFF7F0FE206AFFF7EDFE606A49
:100C5800FFF7EAFEA06AFFF7E7FEDCE7780000206E
:100C6800014B1868704700BFA400002030B5141E5F
:100C780005469BB0184605DA8B234FF0FF302B60F2
:100C88001BB030BD4FF40273ADF80C300CBF2346D7
:100C980004F1FF33029305934FF6FF73009104911B
:100CA800ADF80E3002461E9B6946284600F074F8DF
:100CB800431CBCBF8B232B60002CE1D00022009B7F
:100CC8001A70DDE707B5009313460A460146034844
:100CD8000068FFF7CBFF03B05DF804FBA400002019
:100CE8002DE9F0478E6882469E420C46914698460A
:100CF80038D8B1F80CC01CF4906F31D062692568FF
:100D0800096902EB42026F1A02EBD27201335510E5
:100D18003B449D4238BF1D461CF4806F30D02946A5
:100D280000F040FB064650B90C234FF0FF30CAF8DC
:100D38000030A38943F04003A381BDE8F0873A4619
:100D4800216900F0BBFAA38923F4906343F0800380
:100D5800A38126613E44266046466561ED1BA56079
:100D6800464500D9464632464946206800F0B4FA5E
:100D7800A36800209B1BA36023681E442660DCE751
:100D88002A4600F069FB06460028E2D12169504650
:100D980000F0BCFAC8E700002DE9F04F1E468B8929
:100DA8009DB01B0607460D4614460ED50B6963B960
:100DB800402100F0F7FA2860286120B90C233B6035
:100DC8004FF0FF30C9E040236B61002309932023D3
:100DD8008DF8293030234FF0010ADFF898918DF80B
:100DE8002A30039623461E4613F8012B0AB1252AFA
:100DF800F9D1B6EB040B0BD05B46224629463846A0
:100E0800FFF76EFF013000F0A380099B5B44099354
:100E18003378002B00F09C8000234FF0FF32CDE99F
:100E280005230136049307938DF853301A933446FB
:100E3800052214F8011B4F4800F032FA049BC0B990
:100E4800D90644BF20228DF853201A0744BF2B220D
:100E58008DF8532032782A2A13D0344600200A26E7
:100E6800079A214611F8013B303B092B4BD970B941
:100E780014E0A0EB09000AFA00F018430490264693
:100E8800D5E7039A111D12680391002A01DB079226
:100E980004E0524243F002030792049323782E2B76
:100EA8000CD163782A2B33D1039B02341A1D1B689B
:100EB8000392002BB8BF4FF0FF3305932E4E032249
:100EC8002178304600F0ECF938B14023801B03FA52
:100ED80000F0049B01340343049314F8011B062219
:100EE80026488DF8281000F0DBF9002838D0244B6C
:100EF80013BB039B073323F0070308330393099BB2
:100F0800434409936EE706FB023201200C46A8E72A
:100F180000230A26194601340593204610F8012BB0
:100F2800303A092A03D9002BC8D00591C6E706FB39
:100F3800012101230446F0E703AB00932A46114B35
:100F480004A93846AFF30080B0F1FF3F8046D6D100
:100F5800AB895B063FF534AF09981DB0BDE8F08F4B
:100F680003AB00932A46074B04A9384600F082F8E1
:100F7800EAE700BF40160008461600084A160008AF
:100F880000000000E90C00082DE9F04791461F46D3
:100F98008A680B6906469342B8BF1346C9F8003001
:100FA80091F843200C46DDF8208012B10133C9F8CE
:100FB80000302368990642BFD9F800300233C9F8D7
:100FC8000030256815F0060507D104F1190AE36811
:100FD800D9F800209B1AAB4229DC94F843302268E8
:100FE800003318BF012392062ED404F14302394678
:100FF8003046C047013021D02368E56803F0060376
:10100800042B18BF0025D9F800204FF0000908BFAD
:10101800AD1AA368226908BF25EAE5759342C4BFE3
:101028009B1AED181A344D451AD1002008E0012307
:10103800524639463046C047013003D14FF0FF30A1
:10104800BDE8F0870135C2E73020E11881F8430098
:101058005A1C94F845102244023382F84310C4E71E
:101068000123224639463046C0470130E6D009F10F
:101078000109D8E72DE9F04306460C4601F1430083
:10108800097E85B06E29984617460C9B00F0BB80F8
:1010980024D8632939D00AD8002900F0C4805829F7
:1010A80000F0928004F1420584F8421035E064298A
:1010B80001D06929F6D125681A6815F0800F02F168
:1010C80004012CD012681960002A03DA2D23524239
:1010D80084F84330DFF8C0C10A233FE0732900F0E9
:1010E800A68008D86F2921D07029DBD1226842F068
:1010F8002002226003E0752918D07829D2D17822FD
:10110800DFF898C184F8452062E01A6804F14205C6
:10111800111D1960136884F84230012394E01268A5
:1011280015F0400F196018BF12B2CDE7D4F800C00F
:101138001A681CF0800F02F104051D6001D01268C6
:1011480003E01CF0400FFAD012886F290CBF082367
:101158000A23DFF844C1002184F843106568002D94
:10116800A8BF2168A560A4BF21F0040121600AB9C5
:10117800002D46D00546B2FBF3F103FB112E1CF8F7
:101188000EE0934205F801ED39D9082B0BD12368FD
:10119800DA0708D5236962689A42DEBF302305F86A
:1011A800013C05F1FF35401B2061CDF800803B462E
:1011B80003AA21463046FFF7E7FE013049D14FF038
:1011C800FF3005B0BDE8F083DFF8CCC084F84510E7
:1011D8001D68216855F8042B1D600D060BD5CD0739
:1011E80044BF41F0200121601AB9236823F020038D
:1011F80023601023AFE74B0648BF92B2EFE70A46D9
:10120800B9E70546C1E71A68D4F800C0151D616939
:101218001CF0800F1D60136801D0196003E01CF0FA
:10122800400FFAD01980002305462361BDE71A68EC
:10123800111D1960156800216268284600F030F811
:1012480008B1401B606063682361002384F8433061
:10125800ABE723692A4639463046C0470130AED04D
:1012680023689B0713D4E068039B9842B8BF1846CD
:10127800A7E701234A4639463046C04701309ED089
:101288000135E368039A9B1AAB42F2DCEBE70025D1
:1012980004F11909F5E700BF5116000862160008A5
:1012A80010B5C9B202449042034601D1002303E0BD
:1012B8001C7801308C42F6D1184610BD0A44914280
:1012C80000F1FF3300D1704710B511F8014B91427E
:1012D80003F8014FF9D110BD884210B501EB0203A4
:1012E80002D983421C4607D8421E994208D011F8F9
:1012F800014B02F8014FF8E783189A1A9A4200D175
:1013080010BD14F8011D03F8011DF7E738B50546AF
:10131800002943D051F8043C0C1F002BB8BFE41837
:1013280000F0D0F81E4A1368104633B963601460A1
:101338002846BDE8384000F0CBB8A3420BD9216855
:101348006218934201BF1A685B6852182260636092
:101358000460EDE713465A680AB1A242FAD919683F
:101368005818A0420BD120680144581882421960CD
:10137800DED110685268014419605A60D8E702D972
:101388000C232B60D4E7206821188A4201BF11681A
:1013980052680918216062605C60C9E738BD00BF07
:1013A8009C010020F8B5CD1C25F0030508350C2D4F
:1013B80038BF0C25002D064601DBA94203D90C23B2
:1013C80033600020F8BD00F07DF821490A68144612
:1013D8009CB9204F3B6823B92146304600F062F89B
:1013E80038602946304600F05DF8431C23D10C23B1
:1013F8003046336000F06CF8E3E723685B1B17D4D2
:101408000B2B03D923601C44256004E06368A242C7
:101418000CBF0B605360304600F05AF804F10B0023
:10142800231D20F00700C21ACCD01B1AA350C9E70D
:1014380022466468CCE7C41C24F00304A042E3D02D
:10144800211A304600F02EF80130DDD1CFE700BF79
:101458009C010020A0010020F8B5074614460E465E
:1014680021B91146BDE8F840FFF79CBF22B9FFF744
:101478004DFF25462846F8BD00F030F8A0420FD2AF
:1014880021463846FFF78EFF05460028F2D0314640
:101498002246FFF713FF31463846FFF737FFE9E7E3
:1014A8003546E7E738B50023054C0546084623606E
:1014B800FEF760FF431C02D1236803B12B6038BDDF
:1014C800A4010020014800F011B800BFB0010020BD
:1014D800014800F00CB800BFB001002051F8043CEE
:1014E800181F002BBCBF0B58C018704770477047B7
:1014F800537461636B206672616D653A0A0000007F
:10150800205230203D2020253038580A00000000A5
:10151800205231203D2020253038580A0000000094
:10152800205232203D2020253038580A0000000083
:10153800205233203D2020253038580A0000000072
:1015480020523132203D20253038580A0000000052
:10155800204C52203D2020253038580A0000000039
:10156800205043203D2020253038580A0000000034
:1015780020505352203D20253038580A00000000E2
:101588004653522F4641523A0A0000002043465320
:1015980052203D2020253038580A00002048465364
:1015A80052203D2020253038580A00002044465358
:1015B80052203D2020253038580A0000204146534B
:1015C80052203D2020253038580A0000204D4D4635
:1015D8004152203D20253038580A0000204246411B
:1015E80052203D2020253038580A00004D69736389
:1015F8000A000000204C522F4558435F524554556D
:10160800524E3D20253038580A0000005B48617270
:10161800644661756C745D0A000000005B42757376
:101628004661756C745D0A005B5573616765466158
:10163800756C745D0A000000232D302B2000686C47
:101648004C006566674546470030313233343536DD
:101658003738394142434445460030313233343516
:0B166800363738396162636465660044
:10167400785634121401002000000000000000001D
:1016840000000000010203040607080900A24A043E
:10169400FFA8AAAA88AAAAAAFF5455554455555585
:1016A400FF90565650565696FF2AAAAAA2AAAAAA4C
:1016B400FF9555D5D1D5D5D5FFCA2AEAE8EAEAEA95
:1016C400FF25557574757575FF49555D5D5D5D5DE7
:1016D400FF24AAAEAEAEAEAEFF096A6B0B6B6B6BAA
:1016E400FF425A5A425A5A5A200000202800002029
:1016F4003800002040000020480000205000002056
:1017040058000020600000206800002070000020C5
:1017140030000020A80000200000000000000000AD
:1017240000000000000000000000000000000000B5
:1017340000000000000000000000000000000000A5
:101744000000000000000000000000000000000095
:101754000000000000000000000000000000000085
:101764000000000000000000000000000000000075
:0C177400000000000000000032547698D5
:040000050800010DE1
:00000001FF
